{
  "contractName": "Land",
  "abi": [
    {
      "inputs": [],
      "stateMutability": "nonpayable",
      "type": "constructor"
    },
    {
      "anonymous": false,
      "inputs": [
        {
          "indexed": true,
          "internalType": "uint256",
          "name": "_landId",
          "type": "uint256"
        }
      ],
      "name": "AddingLand",
      "type": "event"
    },
    {
      "anonymous": false,
      "inputs": [
        {
          "indexed": false,
          "internalType": "address",
          "name": "_sellerId",
          "type": "address"
        }
      ],
      "name": "Landrequested",
      "type": "event"
    },
    {
      "anonymous": false,
      "inputs": [
        {
          "indexed": false,
          "internalType": "address",
          "name": "_registrationId",
          "type": "address"
        }
      ],
      "name": "Registration",
      "type": "event"
    },
    {
      "anonymous": false,
      "inputs": [
        {
          "indexed": false,
          "internalType": "address",
          "name": "_id",
          "type": "address"
        }
      ],
      "name": "Rejected",
      "type": "event"
    },
    {
      "anonymous": false,
      "inputs": [
        {
          "indexed": false,
          "internalType": "address",
          "name": "_id",
          "type": "address"
        }
      ],
      "name": "Verified",
      "type": "event"
    },
    {
      "anonymous": false,
      "inputs": [
        {
          "indexed": false,
          "internalType": "address",
          "name": "_buyerId",
          "type": "address"
        }
      ],
      "name": "requestApproved",
      "type": "event"
    },
    {
      "inputs": [
        {
          "internalType": "address",
          "name": "",
          "type": "address"
        }
      ],
      "name": "BuyerMapping",
      "outputs": [
        {
          "internalType": "address",
          "name": "id",
          "type": "address"
        },
        {
          "internalType": "string",
          "name": "name",
          "type": "string"
        },
        {
          "internalType": "uint256",
          "name": "age",
          "type": "uint256"
        },
        {
          "internalType": "string",
          "name": "city",
          "type": "string"
        },
        {
          "internalType": "string",
          "name": "aadharNumber",
          "type": "string"
        },
        {
          "internalType": "string",
          "name": "panNumber",
          "type": "string"
        },
        {
          "internalType": "string",
          "name": "document",
          "type": "string"
        },
        {
          "internalType": "string",
          "name": "email",
          "type": "string"
        }
      ],
      "stateMutability": "view",
      "type": "function"
    },
    {
      "inputs": [
        {
          "internalType": "address",
          "name": "",
          "type": "address"
        }
      ],
      "name": "BuyerRejection",
      "outputs": [
        {
          "internalType": "bool",
          "name": "",
          "type": "bool"
        }
      ],
      "stateMutability": "view",
      "type": "function"
    },
    {
      "inputs": [
        {
          "internalType": "address",
          "name": "",
          "type": "address"
        }
      ],
      "name": "BuyerVerification",
      "outputs": [
        {
          "internalType": "bool",
          "name": "",
          "type": "bool"
        }
      ],
      "stateMutability": "view",
      "type": "function"
    },
    {
      "inputs": [
        {
          "internalType": "uint256",
          "name": "",
          "type": "uint256"
        }
      ],
      "name": "InspectorMapping",
      "outputs": [
        {
          "internalType": "uint256",
          "name": "id",
          "type": "uint256"
        },
        {
          "internalType": "string",
          "name": "name",
          "type": "string"
        },
        {
          "internalType": "uint256",
          "name": "age",
          "type": "uint256"
        },
        {
          "internalType": "string",
          "name": "designation",
          "type": "string"
        }
      ],
      "stateMutability": "view",
      "type": "function"
    },
    {
      "inputs": [
        {
          "internalType": "uint256",
          "name": "",
          "type": "uint256"
        }
      ],
      "name": "LandOwner",
      "outputs": [
        {
          "internalType": "address",
          "name": "",
          "type": "address"
        }
      ],
      "stateMutability": "view",
      "type": "function"
    },
    {
      "inputs": [
        {
          "internalType": "uint256",
          "name": "",
          "type": "uint256"
        }
      ],
      "name": "LandVerification",
      "outputs": [
        {
          "internalType": "bool",
          "name": "",
          "type": "bool"
        }
      ],
      "stateMutability": "view",
      "type": "function"
    },
    {
      "inputs": [],
      "name": "Land_Inspector",
      "outputs": [
        {
          "internalType": "address",
          "name": "",
          "type": "address"
        }
      ],
      "stateMutability": "view",
      "type": "function"
    },
    {
      "inputs": [
        {
          "internalType": "uint256",
          "name": "",
          "type": "uint256"
        }
      ],
      "name": "PaymentReceived",
      "outputs": [
        {
          "internalType": "bool",
          "name": "",
          "type": "bool"
        }
      ],
      "stateMutability": "view",
      "type": "function"
    },
    {
      "inputs": [
        {
          "internalType": "address",
          "name": "",
          "type": "address"
        }
      ],
      "name": "RegisteredAddressMapping",
      "outputs": [
        {
          "internalType": "bool",
          "name": "",
          "type": "bool"
        }
      ],
      "stateMutability": "view",
      "type": "function"
    },
    {
      "inputs": [
        {
          "internalType": "address",
          "name": "",
          "type": "address"
        }
      ],
      "name": "RegisteredBuyerMapping",
      "outputs": [
        {
          "internalType": "bool",
          "name": "",
          "type": "bool"
        }
      ],
      "stateMutability": "view",
      "type": "function"
    },
    {
      "inputs": [
        {
          "internalType": "address",
          "name": "",
          "type": "address"
        }
      ],
      "name": "RegisteredSellerMapping",
      "outputs": [
        {
          "internalType": "bool",
          "name": "",
          "type": "bool"
        }
      ],
      "stateMutability": "view",
      "type": "function"
    },
    {
      "inputs": [
        {
          "internalType": "uint256",
          "name": "",
          "type": "uint256"
        }
      ],
      "name": "RequestStatus",
      "outputs": [
        {
          "internalType": "bool",
          "name": "",
          "type": "bool"
        }
      ],
      "stateMutability": "view",
      "type": "function"
    },
    {
      "inputs": [
        {
          "internalType": "uint256",
          "name": "",
          "type": "uint256"
        }
      ],
      "name": "RequestedLands",
      "outputs": [
        {
          "internalType": "bool",
          "name": "",
          "type": "bool"
        }
      ],
      "stateMutability": "view",
      "type": "function"
    },
    {
      "inputs": [
        {
          "internalType": "uint256",
          "name": "",
          "type": "uint256"
        }
      ],
      "name": "RequestsMapping",
      "outputs": [
        {
          "internalType": "uint256",
          "name": "reqId",
          "type": "uint256"
        },
        {
          "internalType": "address",
          "name": "sellerId",
          "type": "address"
        },
        {
          "internalType": "address",
          "name": "buyerId",
          "type": "address"
        },
        {
          "internalType": "uint256",
          "name": "landId",
          "type": "uint256"
        }
      ],
      "stateMutability": "view",
      "type": "function"
    },
    {
      "inputs": [
        {
          "internalType": "address",
          "name": "",
          "type": "address"
        }
      ],
      "name": "SellerMapping",
      "outputs": [
        {
          "internalType": "address",
          "name": "id",
          "type": "address"
        },
        {
          "internalType": "string",
          "name": "name",
          "type": "string"
        },
        {
          "internalType": "uint256",
          "name": "age",
          "type": "uint256"
        },
        {
          "internalType": "string",
          "name": "aadharNumber",
          "type": "string"
        },
        {
          "internalType": "string",
          "name": "panNumber",
          "type": "string"
        },
        {
          "internalType": "string",
          "name": "landsOwned",
          "type": "string"
        },
        {
          "internalType": "string",
          "name": "document",
          "type": "string"
        }
      ],
      "stateMutability": "view",
      "type": "function"
    },
    {
      "inputs": [
        {
          "internalType": "address",
          "name": "",
          "type": "address"
        }
      ],
      "name": "SellerRejection",
      "outputs": [
        {
          "internalType": "bool",
          "name": "",
          "type": "bool"
        }
      ],
      "stateMutability": "view",
      "type": "function"
    },
    {
      "inputs": [
        {
          "internalType": "address",
          "name": "",
          "type": "address"
        }
      ],
      "name": "SellerVerification",
      "outputs": [
        {
          "internalType": "bool",
          "name": "",
          "type": "bool"
        }
      ],
      "stateMutability": "view",
      "type": "function"
    },
    {
      "inputs": [
        {
          "internalType": "uint256",
          "name": "",
          "type": "uint256"
        }
      ],
      "name": "buyers",
      "outputs": [
        {
          "internalType": "address",
          "name": "",
          "type": "address"
        }
      ],
      "stateMutability": "view",
      "type": "function"
    },
    {
      "inputs": [],
      "name": "buyersCount",
      "outputs": [
        {
          "internalType": "uint256",
          "name": "",
          "type": "uint256"
        }
      ],
      "stateMutability": "view",
      "type": "function"
    },
    {
      "inputs": [],
      "name": "inspectorsCount",
      "outputs": [
        {
          "internalType": "uint256",
          "name": "",
          "type": "uint256"
        }
      ],
      "stateMutability": "view",
      "type": "function"
    },
    {
      "inputs": [
        {
          "internalType": "uint256",
          "name": "",
          "type": "uint256"
        }
      ],
      "name": "lands",
      "outputs": [
        {
          "internalType": "uint256",
          "name": "id",
          "type": "uint256"
        },
        {
          "internalType": "uint256",
          "name": "area",
          "type": "uint256"
        },
        {
          "internalType": "string",
          "name": "city",
          "type": "string"
        },
        {
          "internalType": "string",
          "name": "state",
          "type": "string"
        },
        {
          "internalType": "uint256",
          "name": "landPrice",
          "type": "uint256"
        },
        {
          "internalType": "uint256",
          "name": "propertyPID",
          "type": "uint256"
        },
        {
          "internalType": "uint256",
          "name": "physicalSurveyNumber",
          "type": "uint256"
        },
        {
          "internalType": "string",
          "name": "ipfsHash",
          "type": "string"
        },
        {
          "internalType": "string",
          "name": "document",
          "type": "string"
        }
      ],
      "stateMutability": "view",
      "type": "function"
    },
    {
      "inputs": [],
      "name": "landsCount",
      "outputs": [
        {
          "internalType": "uint256",
          "name": "",
          "type": "uint256"
        }
      ],
      "stateMutability": "view",
      "type": "function"
    },
    {
      "inputs": [],
      "name": "requestsCount",
      "outputs": [
        {
          "internalType": "uint256",
          "name": "",
          "type": "uint256"
        }
      ],
      "stateMutability": "view",
      "type": "function"
    },
    {
      "inputs": [
        {
          "internalType": "uint256",
          "name": "",
          "type": "uint256"
        }
      ],
      "name": "sellers",
      "outputs": [
        {
          "internalType": "address",
          "name": "",
          "type": "address"
        }
      ],
      "stateMutability": "view",
      "type": "function"
    },
    {
      "inputs": [],
      "name": "sellersCount",
      "outputs": [
        {
          "internalType": "uint256",
          "name": "",
          "type": "uint256"
        }
      ],
      "stateMutability": "view",
      "type": "function"
    },
    {
      "inputs": [],
      "name": "getLandsCount",
      "outputs": [
        {
          "internalType": "uint256",
          "name": "",
          "type": "uint256"
        }
      ],
      "stateMutability": "view",
      "type": "function"
    },
    {
      "inputs": [],
      "name": "getBuyersCount",
      "outputs": [
        {
          "internalType": "uint256",
          "name": "",
          "type": "uint256"
        }
      ],
      "stateMutability": "view",
      "type": "function"
    },
    {
      "inputs": [],
      "name": "getSellersCount",
      "outputs": [
        {
          "internalType": "uint256",
          "name": "",
          "type": "uint256"
        }
      ],
      "stateMutability": "view",
      "type": "function"
    },
    {
      "inputs": [],
      "name": "getRequestsCount",
      "outputs": [
        {
          "internalType": "uint256",
          "name": "",
          "type": "uint256"
        }
      ],
      "stateMutability": "view",
      "type": "function"
    },
    {
      "inputs": [
        {
          "internalType": "uint256",
          "name": "i",
          "type": "uint256"
        }
      ],
      "name": "getArea",
      "outputs": [
        {
          "internalType": "uint256",
          "name": "",
          "type": "uint256"
        }
      ],
      "stateMutability": "view",
      "type": "function"
    },
    {
      "inputs": [
        {
          "internalType": "uint256",
          "name": "i",
          "type": "uint256"
        }
      ],
      "name": "getCity",
      "outputs": [
        {
          "internalType": "string",
          "name": "",
          "type": "string"
        }
      ],
      "stateMutability": "view",
      "type": "function"
    },
    {
      "inputs": [
        {
          "internalType": "uint256",
          "name": "i",
          "type": "uint256"
        }
      ],
      "name": "getState",
      "outputs": [
        {
          "internalType": "string",
          "name": "",
          "type": "string"
        }
      ],
      "stateMutability": "view",
      "type": "function"
    },
    {
      "inputs": [
        {
          "internalType": "uint256",
          "name": "i",
          "type": "uint256"
        }
      ],
      "name": "getPrice",
      "outputs": [
        {
          "internalType": "uint256",
          "name": "",
          "type": "uint256"
        }
      ],
      "stateMutability": "view",
      "type": "function"
    },
    {
      "inputs": [
        {
          "internalType": "uint256",
          "name": "i",
          "type": "uint256"
        }
      ],
      "name": "getPID",
      "outputs": [
        {
          "internalType": "uint256",
          "name": "",
          "type": "uint256"
        }
      ],
      "stateMutability": "view",
      "type": "function"
    },
    {
      "inputs": [
        {
          "internalType": "uint256",
          "name": "i",
          "type": "uint256"
        }
      ],
      "name": "getSurveyNumber",
      "outputs": [
        {
          "internalType": "uint256",
          "name": "",
          "type": "uint256"
        }
      ],
      "stateMutability": "view",
      "type": "function"
    },
    {
      "inputs": [
        {
          "internalType": "uint256",
          "name": "i",
          "type": "uint256"
        }
      ],
      "name": "getImage",
      "outputs": [
        {
          "internalType": "string",
          "name": "",
          "type": "string"
        }
      ],
      "stateMutability": "view",
      "type": "function"
    },
    {
      "inputs": [
        {
          "internalType": "uint256",
          "name": "i",
          "type": "uint256"
        }
      ],
      "name": "getDocument",
      "outputs": [
        {
          "internalType": "string",
          "name": "",
          "type": "string"
        }
      ],
      "stateMutability": "view",
      "type": "function"
    },
    {
      "inputs": [
        {
          "internalType": "uint256",
          "name": "id",
          "type": "uint256"
        }
      ],
      "name": "getLandOwner",
      "outputs": [
        {
          "internalType": "address",
          "name": "",
          "type": "address"
        }
      ],
      "stateMutability": "view",
      "type": "function"
    },
    {
      "inputs": [
        {
          "internalType": "address",
          "name": "_sellerId",
          "type": "address"
        }
      ],
      "name": "verifySeller",
      "outputs": [],
      "stateMutability": "nonpayable",
      "type": "function"
    },
    {
      "inputs": [
        {
          "internalType": "address",
          "name": "_sellerId",
          "type": "address"
        }
      ],
      "name": "rejectSeller",
      "outputs": [],
      "stateMutability": "nonpayable",
      "type": "function"
    },
    {
      "inputs": [
        {
          "internalType": "address",
          "name": "_buyerId",
          "type": "address"
        }
      ],
      "name": "verifyBuyer",
      "outputs": [],
      "stateMutability": "nonpayable",
      "type": "function"
    },
    {
      "inputs": [
        {
          "internalType": "address",
          "name": "_buyerId",
          "type": "address"
        }
      ],
      "name": "rejectBuyer",
      "outputs": [],
      "stateMutability": "nonpayable",
      "type": "function"
    },
    {
      "inputs": [
        {
          "internalType": "uint256",
          "name": "_landId",
          "type": "uint256"
        }
      ],
      "name": "verifyLand",
      "outputs": [],
      "stateMutability": "nonpayable",
      "type": "function"
    },
    {
      "inputs": [
        {
          "internalType": "uint256",
          "name": "_id",
          "type": "uint256"
        }
      ],
      "name": "isLandVerified",
      "outputs": [
        {
          "internalType": "bool",
          "name": "",
          "type": "bool"
        }
      ],
      "stateMutability": "view",
      "type": "function"
    },
    {
      "inputs": [
        {
          "internalType": "address",
          "name": "_id",
          "type": "address"
        }
      ],
      "name": "isVerified",
      "outputs": [
        {
          "internalType": "bool",
          "name": "",
          "type": "bool"
        }
      ],
      "stateMutability": "view",
      "type": "function"
    },
    {
      "inputs": [
        {
          "internalType": "address",
          "name": "_id",
          "type": "address"
        }
      ],
      "name": "isRejected",
      "outputs": [
        {
          "internalType": "bool",
          "name": "",
          "type": "bool"
        }
      ],
      "stateMutability": "view",
      "type": "function"
    },
    {
      "inputs": [
        {
          "internalType": "address",
          "name": "_id",
          "type": "address"
        }
      ],
      "name": "isSeller",
      "outputs": [
        {
          "internalType": "bool",
          "name": "",
          "type": "bool"
        }
      ],
      "stateMutability": "view",
      "type": "function"
    },
    {
      "inputs": [
        {
          "internalType": "address",
          "name": "_id",
          "type": "address"
        }
      ],
      "name": "isLandInspector",
      "outputs": [
        {
          "internalType": "bool",
          "name": "",
          "type": "bool"
        }
      ],
      "stateMutability": "view",
      "type": "function"
    },
    {
      "inputs": [
        {
          "internalType": "address",
          "name": "_id",
          "type": "address"
        }
      ],
      "name": "isBuyer",
      "outputs": [
        {
          "internalType": "bool",
          "name": "",
          "type": "bool"
        }
      ],
      "stateMutability": "view",
      "type": "function"
    },
    {
      "inputs": [
        {
          "internalType": "address",
          "name": "_id",
          "type": "address"
        }
      ],
      "name": "isRegistered",
      "outputs": [
        {
          "internalType": "bool",
          "name": "",
          "type": "bool"
        }
      ],
      "stateMutability": "view",
      "type": "function"
    },
    {
      "inputs": [
        {
          "internalType": "uint256",
          "name": "_area",
          "type": "uint256"
        },
        {
          "internalType": "string",
          "name": "_city",
          "type": "string"
        },
        {
          "internalType": "string",
          "name": "_state",
          "type": "string"
        },
        {
          "internalType": "uint256",
          "name": "landPrice",
          "type": "uint256"
        },
        {
          "internalType": "uint256",
          "name": "_propertyPID",
          "type": "uint256"
        },
        {
          "internalType": "uint256",
          "name": "_surveyNum",
          "type": "uint256"
        },
        {
          "internalType": "string",
          "name": "_ipfsHash",
          "type": "string"
        },
        {
          "internalType": "string",
          "name": "_document",
          "type": "string"
        }
      ],
      "name": "addLand",
      "outputs": [],
      "stateMutability": "nonpayable",
      "type": "function"
    },
    {
      "inputs": [
        {
          "internalType": "string",
          "name": "_name",
          "type": "string"
        },
        {
          "internalType": "uint256",
          "name": "_age",
          "type": "uint256"
        },
        {
          "internalType": "string",
          "name": "_aadharNumber",
          "type": "string"
        },
        {
          "internalType": "string",
          "name": "_panNumber",
          "type": "string"
        },
        {
          "internalType": "string",
          "name": "_landsOwned",
          "type": "string"
        },
        {
          "internalType": "string",
          "name": "_document",
          "type": "string"
        }
      ],
      "name": "registerSeller",
      "outputs": [],
      "stateMutability": "nonpayable",
      "type": "function"
    },
    {
      "inputs": [
        {
          "internalType": "string",
          "name": "_name",
          "type": "string"
        },
        {
          "internalType": "uint256",
          "name": "_age",
          "type": "uint256"
        },
        {
          "internalType": "string",
          "name": "_aadharNumber",
          "type": "string"
        },
        {
          "internalType": "string",
          "name": "_panNumber",
          "type": "string"
        },
        {
          "internalType": "string",
          "name": "_landsOwned",
          "type": "string"
        }
      ],
      "name": "updateSeller",
      "outputs": [],
      "stateMutability": "nonpayable",
      "type": "function"
    },
    {
      "inputs": [],
      "name": "getSeller",
      "outputs": [
        {
          "internalType": "address[]",
          "name": "",
          "type": "address[]"
        }
      ],
      "stateMutability": "view",
      "type": "function"
    },
    {
      "inputs": [
        {
          "internalType": "address",
          "name": "i",
          "type": "address"
        }
      ],
      "name": "getSellerDetails",
      "outputs": [
        {
          "internalType": "string",
          "name": "",
          "type": "string"
        },
        {
          "internalType": "uint256",
          "name": "",
          "type": "uint256"
        },
        {
          "internalType": "string",
          "name": "",
          "type": "string"
        },
        {
          "internalType": "string",
          "name": "",
          "type": "string"
        },
        {
          "internalType": "string",
          "name": "",
          "type": "string"
        },
        {
          "internalType": "string",
          "name": "",
          "type": "string"
        }
      ],
      "stateMutability": "view",
      "type": "function"
    },
    {
      "inputs": [
        {
          "internalType": "string",
          "name": "_name",
          "type": "string"
        },
        {
          "internalType": "uint256",
          "name": "_age",
          "type": "uint256"
        },
        {
          "internalType": "string",
          "name": "_city",
          "type": "string"
        },
        {
          "internalType": "string",
          "name": "_aadharNumber",
          "type": "string"
        },
        {
          "internalType": "string",
          "name": "_panNumber",
          "type": "string"
        },
        {
          "internalType": "string",
          "name": "_document",
          "type": "string"
        },
        {
          "internalType": "string",
          "name": "_email",
          "type": "string"
        }
      ],
      "name": "registerBuyer",
      "outputs": [],
      "stateMutability": "nonpayable",
      "type": "function"
    },
    {
      "inputs": [
        {
          "internalType": "string",
          "name": "_name",
          "type": "string"
        },
        {
          "internalType": "uint256",
          "name": "_age",
          "type": "uint256"
        },
        {
          "internalType": "string",
          "name": "_city",
          "type": "string"
        },
        {
          "internalType": "string",
          "name": "_aadharNumber",
          "type": "string"
        },
        {
          "internalType": "string",
          "name": "_email",
          "type": "string"
        },
        {
          "internalType": "string",
          "name": "_panNumber",
          "type": "string"
        }
      ],
      "name": "updateBuyer",
      "outputs": [],
      "stateMutability": "nonpayable",
      "type": "function"
    },
    {
      "inputs": [],
      "name": "getBuyer",
      "outputs": [
        {
          "internalType": "address[]",
          "name": "",
          "type": "address[]"
        }
      ],
      "stateMutability": "view",
      "type": "function"
    },
    {
      "inputs": [
        {
          "internalType": "address",
          "name": "i",
          "type": "address"
        }
      ],
      "name": "getBuyerDetails",
      "outputs": [
        {
          "internalType": "string",
          "name": "",
          "type": "string"
        },
        {
          "internalType": "string",
          "name": "",
          "type": "string"
        },
        {
          "internalType": "string",
          "name": "",
          "type": "string"
        },
        {
          "internalType": "string",
          "name": "",
          "type": "string"
        },
        {
          "internalType": "string",
          "name": "",
          "type": "string"
        },
        {
          "internalType": "uint256",
          "name": "",
          "type": "uint256"
        },
        {
          "internalType": "string",
          "name": "",
          "type": "string"
        }
      ],
      "stateMutability": "view",
      "type": "function"
    },
    {
      "inputs": [
        {
          "internalType": "address",
          "name": "_sellerId",
          "type": "address"
        },
        {
          "internalType": "uint256",
          "name": "_landId",
          "type": "uint256"
        }
      ],
      "name": "requestLand",
      "outputs": [],
      "stateMutability": "nonpayable",
      "type": "function"
    },
    {
      "inputs": [
        {
          "internalType": "uint256",
          "name": "i",
          "type": "uint256"
        }
      ],
      "name": "getRequestDetails",
      "outputs": [
        {
          "internalType": "address",
          "name": "",
          "type": "address"
        },
        {
          "internalType": "address",
          "name": "",
          "type": "address"
        },
        {
          "internalType": "uint256",
          "name": "",
          "type": "uint256"
        },
        {
          "internalType": "bool",
          "name": "",
          "type": "bool"
        }
      ],
      "stateMutability": "view",
      "type": "function"
    },
    {
      "inputs": [
        {
          "internalType": "uint256",
          "name": "_id",
          "type": "uint256"
        }
      ],
      "name": "isRequested",
      "outputs": [
        {
          "internalType": "bool",
          "name": "",
          "type": "bool"
        }
      ],
      "stateMutability": "view",
      "type": "function"
    },
    {
      "inputs": [
        {
          "internalType": "uint256",
          "name": "_id",
          "type": "uint256"
        }
      ],
      "name": "isApproved",
      "outputs": [
        {
          "internalType": "bool",
          "name": "",
          "type": "bool"
        }
      ],
      "stateMutability": "view",
      "type": "function"
    },
    {
      "inputs": [
        {
          "internalType": "uint256",
          "name": "_reqId",
          "type": "uint256"
        }
      ],
      "name": "approveRequest",
      "outputs": [],
      "stateMutability": "nonpayable",
      "type": "function"
    },
    {
      "inputs": [
        {
          "internalType": "uint256",
          "name": "_landId",
          "type": "uint256"
        },
        {
          "internalType": "address",
          "name": "_newOwner",
          "type": "address"
        }
      ],
      "name": "LandOwnershipTransfer",
      "outputs": [],
      "stateMutability": "nonpayable",
      "type": "function"
    },
    {
      "inputs": [
        {
          "internalType": "uint256",
          "name": "_landId",
          "type": "uint256"
        }
      ],
      "name": "isPaid",
      "outputs": [
        {
          "internalType": "bool",
          "name": "",
          "type": "bool"
        }
      ],
      "stateMutability": "view",
      "type": "function"
    },
    {
      "inputs": [
        {
          "internalType": "address payable",
          "name": "_receiver",
          "type": "address"
        },
        {
          "internalType": "uint256",
          "name": "_landId",
          "type": "uint256"
        }
      ],
      "name": "payment",
      "outputs": [],
      "stateMutability": "payable",
      "type": "function"
    }
  ],
  "bytecode": "0x60806040523480156200001157600080fd5b50601180546001600160a01b03191633179055604080518082018252600b81526a496e73706563746f72203160a81b6020808301919091528251808401909352600e83526d2a32b439b4b61026b0b730b3b2b960911b908301526200007991602d906200007f565b62000222565b601580549060006200009183620001be565b9091555050604080516080810182526015548082526020808301878152838501879052606084018690526000928352600180835294909220835181559151805193949293620000e893850192919091019062000118565b5060408201516002820155606082015180516200011091600384019160209091019062000118565b505050505050565b8280546200012690620001e6565b90600052602060002090601f0160209004810192826200014a576000855562000195565b82601f106200016557805160ff191683800117855562000195565b8280016001018555821562000195579182015b828111156200019557825182559160200191906001019062000178565b50620001a3929150620001a7565b5090565b5b80821115620001a35760008155600101620001a8565b600060018201620001df57634e487b7160e01b600052601160045260246000fd5b5060010190565b600181811c90821680620001fb57607f821691505b6020821081036200021c57634e487b7160e01b600052602260045260246000fd5b50919050565b61371d80620002326000396000f3fe6080604052600436106103e45760003560e01c8063a47d4c0211610208578063dd9d122d11610118578063e7572230116100ab578063f34d4c631161007a578063f34d4c6314610d65578063f3f0c21814610def578063f58f85b514610e0f578063f9c43bdf14610e3f578063fbfa4b7f14610e5f57600080fd5b8063e757223014610ce0578063ee95feaf14610d10578063f0d3a9df14610d30578063f2aa821814610d4557600080fd5b8063e1ecc794116100e7578063e1ecc79414610c3b578063e261f1e514610c5b578063e4b2611514610c90578063e530c40014610cc057600080fd5b8063dd9d122d14610ba3578063dec091ad14610bb8578063def936c314610beb578063e165af8714610c1b57600080fd5b8063bed403c71161019b578063cee26ed51161016a578063cee26ed514610b0e578063d1760e6014610b2e578063d713065114610b4e578063d7d1bbdb14610b6e578063dbd0e1b614610b8e57600080fd5b8063bed403c714610a8e578063c3c5a54714610aae578063c560b4e514610ace578063cd392a8314610aee57600080fd5b8063b0a5dcd3116101d7578063b0a5dcd3146109a7578063b3c8fe8514610a26578063b9209e3314610a58578063ba49a08c14610a7857600080fd5b8063a47d4c02146108e3578063a4a0f6c014610913578063a6dc41fb14610943578063ab5170741461097357600080fd5b8063601e7c34116103035780637910867b1161029657806393383648116102655780639338364814610831578063941e242614610851578063989376b4146108675780639ae9711e146108975780639dc1bfa9146108ad57600080fd5b80637910867b1461079157806383546501146107b15780638965cde1146107e157806389d213541461080157600080fd5b806367a09c23116102d257806367a09c231461070b5780636814800b1461071e57806368cfe6ee1461073e5780636cbf6cf81461077157600080fd5b8063601e7c3414610659578063603daf9a1461068957806363f17143146106ab5780636490c7a8146106db57600080fd5b80632607aafa1161037b57806344c9af281161034a57806344c9af28146105c957806348a46bd3146105e95780634daa9dae146106095780634e2cba091461063957600080fd5b80632607aafa146105475780632a55feec146105745780633410452a146105945780633f9b250a146105a957600080fd5b8063170f3909116103b7578063170f3909146104935780631869a38b146104cb5780631a07f76e146105015780631c9afd0f1461053157600080fd5b806307d56ac0146103e957806311ce462c1461042c578063155fec721461044e57806316d9d6661461047e575b600080fd5b3480156103f557600080fd5b50610419610404366004612e52565b60009081526020819052604090206005015490565b6040519081526020015b60405180910390f35b34801561043857600080fd5b5061044c610447366004612f0e565b610e75565b005b34801561045a57600080fd5b5061046e610469366004612e52565b610f85565b6040519015158152602001610423565b34801561048a57600080fd5b50601454610419565b34801561049f57600080fd5b506011546104b3906001600160a01b031681565b6040516001600160a01b039091168152602001610423565b3480156104d757600080fd5b506104b36104e6366004612e52565b6000908152600d60205260409020546001600160a01b031690565b34801561050d57600080fd5b5061046e61051c366004612e52565b60106020526000908152604090205460ff1681565b34801561053d57600080fd5b5061041960145481565b34801561055357600080fd5b50610567610562366004612e52565b610fac565b6040516104239190613035565b34801561058057600080fd5b5061046e61058f366004613067565b611051565b3480156105a057600080fd5b50601854610419565b3480156105b557600080fd5b506105676105c4366004612e52565b61107a565b3480156105d557600080fd5b506105676105e4366004612e52565b61109a565b3480156105f557600080fd5b5061046e610604366004613067565b6110ba565b34801561061557600080fd5b5061046e610624366004612e52565b600f6020526000908152604090205460ff1681565b34801561064557600080fd5b5061044c610654366004613084565b611106565b34801561066557600080fd5b5061046e610674366004613067565b60066020526000908152604090205460ff1681565b34801561069557600080fd5b5061069e611301565b6040516104239190613184565b3480156106b757600080fd5b5061046e6106c6366004613067565b60096020526000908152604090205460ff1681565b3480156106e757600080fd5b506104196106f6366004612e52565b60009081526020819052604090206001015490565b61044c6107193660046131d1565b611363565b34801561072a57600080fd5b5061044c610739366004613067565b6113b5565b34801561074a57600080fd5b5061075e610759366004613067565b611422565b60405161042397969594939291906131fd565b34801561077d57600080fd5b5061046e61078c366004612e52565b6117cd565b34801561079d57600080fd5b5061046e6107ac366004612e52565b6117ec565b3480156107bd57600080fd5b5061046e6107cc366004612e52565b600c6020526000908152604090205460ff1681565b3480156107ed57600080fd5b5061044c6107fc366004613067565b61180b565b34801561080d57600080fd5b5061046e61081c366004612e52565b600e6020526000908152604090205460ff1681565b34801561083d57600080fd5b5061044c61084c366004612f0e565b611871565b34801561085d57600080fd5b5061041960155481565b34801561087357600080fd5b5061046e610882366004613067565b600b6020526000908152604090205460ff1681565b3480156108a357600080fd5b5061041960165481565b3480156108b957600080fd5b506104b36108c8366004612e52565b600d602052600090815260409020546001600160a01b031681565b3480156108ef57600080fd5b5061046e6108fe366004613067565b60076020526000908152604090205460ff1681565b34801561091f57600080fd5b5061041961092e366004612e52565b60009081526020819052604090206006015490565b34801561094f57600080fd5b5061046e61095e366004613067565b600a6020526000908152604090205460ff1681565b34801561097f57600080fd5b5061099361098e366004613067565b611a47565b604051610423989796959493929190613286565b3480156109b357600080fd5b506109f66109c2366004612e52565b600460205260009081526040902080546001820154600283015460039093015491926001600160a01b039182169291169084565b60405161042394939291909384526001600160a01b03928316602085015291166040830152606082015260800190565b348015610a3257600080fd5b50610a46610a41366004613067565b611dc2565b60405161042396959493929190613324565b348015610a6457600080fd5b5061046e610a73366004613067565b6120da565b348015610a8457600080fd5b5061041960175481565b348015610a9a57600080fd5b5061044c610aa9366004613398565b612125565b348015610aba57600080fd5b5061046e610ac9366004613067565b612165565b348015610ada57600080fd5b5061044c610ae93660046133c8565b61218e565b348015610afa57600080fd5b5061046e610b09366004612e52565b612275565b348015610b1a57600080fd5b506104b3610b29366004612e52565b612294565b348015610b3a57600080fd5b5061044c610b49366004613067565b6122be565b348015610b5a57600080fd5b50610567610b69366004612e52565b612324565b348015610b7a57600080fd5b5061044c610b89366004612e52565b612344565b348015610b9a57600080fd5b5061069e612381565b348015610baf57600080fd5b50601654610419565b348015610bc457600080fd5b50610bd8610bd3366004613067565b6123e1565b604051610423979695949392919061347f565b348015610bf757600080fd5b50610c0b610c06366004612e52565b6126ce565b60405161042394939291906134f7565b348015610c2757600080fd5b5061046e610c36366004613067565b612806565b348015610c4757600080fd5b5061044c610c56366004613067565b612826565b348015610c6757600080fd5b50610c7b610c76366004612e52565b61288c565b60405161042399989796959493929190613533565b348015610c9c57600080fd5b5061046e610cab366004613067565b60086020526000908152604090205460ff1681565b348015610ccc57600080fd5b5061044c610cdb3660046135b2565b612af3565b348015610cec57600080fd5b50610419610cfb366004612e52565b60009081526020819052604090206004015490565b348015610d1c57600080fd5b5061046e610d2b366004613067565b612c44565b348015610d3c57600080fd5b50601754610419565b348015610d5157600080fd5b506104b3610d60366004612e52565b612c6d565b348015610d7157600080fd5b50610dc2610d80366004612e52565b600090815260046020908152604080832060018101546002820154600390920154600e90945291909320546001600160a01b0391821694919093169260ff1690565b604080516001600160a01b0395861681529490931660208501529183015215156060820152608001610423565b348015610dfb57600080fd5b5061044c610e0a3660046131d1565b612c7d565b348015610e1b57600080fd5b5061046e610e2a366004613067565b60056020526000908152604090205460ff1681565b348015610e4b57600080fd5b5061044c610e5a366004612e52565b612d8c565b348015610e6b57600080fd5b5061041960185481565b3360009081526005602052604090205460ff168015610eaa5750336000818152600360205260409020546001600160a01b0316145b610eb357600080fd5b3360009081526003602090815260409091208751610ed992600190920191890190612db9565b50336000908152600360208181526040909220600281018890558651610f0793919092019190870190612db9565b503360009081526003602090815260409091208451610f2e92600490920191860190612db9565b503360009081526003602090815260409091208351610f5592600790920191850190612db9565b503360009081526003602090815260409091208251610f7c92600590920191840190612db9565b50505050505050565b6000818152600f602052604081205460ff1615610fa457506001919050565b506000919050565b6000818152602081905260409020600701805460609190610fcc90613686565b80601f0160208091040260200160405190810160405280929190818152602001828054610ff890613686565b80156110455780601f1061101a57610100808354040283529160200191611045565b820191906000526020600020905b81548152906001019060200180831161102857829003601f168201915b50505050509050919050565b6001600160a01b03811660009081526007602052604081205460ff1615610fa457506001919050565b6000818152602081905260409020600801805460609190610fcc90613686565b6000818152602081905260409020600301805460609190610fcc90613686565b6001600160a01b03811660009081526009602052604081205460ff16806110f957506001600160a01b0382166000908152600b602052604090205460ff165b15610fa457506001919050565b3360009081526005602052604090205460ff161561112357600080fd5b3360009081526005602090815260408083208054600160ff199182168117909255600790935290832080549092161790556017805491611162836136c0565b909155505060408051610100810182523380825260208083018b81528385018b9052606084018a90526080840189905260a0840188905260c0840187905260e0840186905260009283526003825293909120825181546001600160a01b0319166001600160a01b03909116178155925180519293926111e79260018501920190612db9565b50604082015160028201556060820151805161120d916003840191602090910190612db9565b5060808201518051611229916004840191602090910190612db9565b5060a08201518051611245916005840191602090910190612db9565b5060c08201518051611261916006840191602090910190612db9565b5060e0820151805161127d916007840191602090910190612db9565b5050601380546001810182556000919091527f66de8ffda797e3de9c05e8fc57b3bf0ec28a930d40b0d285d93c06501cf6a0900180546001600160a01b031916339081179091556040519081527f478f5152d8fc568db3f8de9fb402fd9d98a1a7541ecfe434e59cf574fbfc5524915060200160405180910390a150505050505050565b6060601380548060200260200160405190810160405280929190818152602001828054801561135957602002820191906000526020600020905b81546001600160a01b0316815260019091019060200180831161133b575b5050505050905090565b600081815260106020526040808220805460ff19166001179055516001600160a01b038416913480156108fc02929091818181858888f193505050501580156113b0573d6000803e3d6000fd5b505050565b6113be33612806565b6113c757600080fd5b6001600160a01b0381166000818152600a6020908152604091829020805460ff1916600117905590519182527f6a6455914f452787eb3985452aceedc1000fb545e394eb3b370e3d08958e0a5b91015b60405180910390a150565b6001600160a01b0381166000908152600360208190526040822060028101546001820180546060958695869586958695939486949383019260058101926006820192600783019260040190879061147890613686565b80601f01602080910402602001604051908101604052809291908181526020018280546114a490613686565b80156114f15780601f106114c6576101008083540402835291602001916114f1565b820191906000526020600020905b8154815290600101906020018083116114d457829003601f168201915b5050505050965085805461150490613686565b80601f016020809104026020016040519081016040528092919081815260200182805461153090613686565b801561157d5780601f106115525761010080835404028352916020019161157d565b820191906000526020600020905b81548152906001019060200180831161156057829003601f168201915b5050505050955084805461159090613686565b80601f01602080910402602001604051908101604052809291908181526020018280546115bc90613686565b80156116095780601f106115de57610100808354040283529160200191611609565b820191906000526020600020905b8154815290600101906020018083116115ec57829003601f168201915b5050505050945083805461161c90613686565b80601f016020809104026020016040519081016040528092919081815260200182805461164890613686565b80156116955780601f1061166a57610100808354040283529160200191611695565b820191906000526020600020905b81548152906001019060200180831161167857829003601f168201915b505050505093508280546116a890613686565b80601f01602080910402602001604051908101604052809291908181526020018280546116d490613686565b80156117215780601f106116f657610100808354040283529160200191611721565b820191906000526020600020905b81548152906001019060200180831161170457829003601f168201915b5050505050925080805461173490613686565b80601f016020809104026020016040519081016040528092919081815260200182805461176090613686565b80156117ad5780601f10611782576101008083540402835291602001916117ad565b820191906000526020600020905b81548152906001019060200180831161179057829003601f168201915b505050505090509650965096509650965096509650919395979092949650565b6000818152600c602052604081205460ff1615610fa457506001919050565b6000818152600e602052604081205460ff1615610fa457506001919050565b61181433612806565b61181d57600080fd5b6001600160a01b0381166000818152600b6020908152604091829020805460ff1916600117905590519182527faf77f8960cf590e245ec8b6d41c193a5dcacad8986ae4eb57ac9e5be7b6af0319101611417565b3360009081526005602052604090205460ff161561188e57600080fd5b3360009081526005602090815260408083208054600160ff1991821681179092556006909352908320805490921617905560168054916118cd836136c0565b90915550506040805160e0810182523380825260208083018a81528385018a9052606084018990526080840188905260a0840187905260c0840186905260009283526002825293909120825181546001600160a01b0319166001600160a01b039091161781559251805192939261194a9260018501920190612db9565b506040820151600282015560608201518051611970916003840191602090910190612db9565b506080820151805161198c916004840191602090910190612db9565b5060a082015180516119a8916005840191602090910190612db9565b5060c082015180516119c4916006840191602090910190612db9565b5050601280546001810182556000919091527fbb8a6a4669ba250d26cd7a459eca9d215f8307e33aebe50379bc5a3617ec34440180546001600160a01b031916339081179091556040519081527f478f5152d8fc568db3f8de9fb402fd9d98a1a7541ecfe434e59cf574fbfc5524915060200160405180910390a1505050505050565b600360205260009081526040902080546001820180546001600160a01b039092169291611a7390613686565b80601f0160208091040260200160405190810160405280929190818152602001828054611a9f90613686565b8015611aec5780601f10611ac157610100808354040283529160200191611aec565b820191906000526020600020905b815481529060010190602001808311611acf57829003601f168201915b505050505090806002015490806003018054611b0790613686565b80601f0160208091040260200160405190810160405280929190818152602001828054611b3390613686565b8015611b805780601f10611b5557610100808354040283529160200191611b80565b820191906000526020600020905b815481529060010190602001808311611b6357829003601f168201915b505050505090806004018054611b9590613686565b80601f0160208091040260200160405190810160405280929190818152602001828054611bc190613686565b8015611c0e5780601f10611be357610100808354040283529160200191611c0e565b820191906000526020600020905b815481529060010190602001808311611bf157829003601f168201915b505050505090806005018054611c2390613686565b80601f0160208091040260200160405190810160405280929190818152602001828054611c4f90613686565b8015611c9c5780601f10611c7157610100808354040283529160200191611c9c565b820191906000526020600020905b815481529060010190602001808311611c7f57829003601f168201915b505050505090806006018054611cb190613686565b80601f0160208091040260200160405190810160405280929190818152602001828054611cdd90613686565b8015611d2a5780601f10611cff57610100808354040283529160200191611d2a565b820191906000526020600020905b815481529060010190602001808311611d0d57829003601f168201915b505050505090806007018054611d3f90613686565b80601f0160208091040260200160405190810160405280929190818152602001828054611d6b90613686565b8015611db85780601f10611d8d57610100808354040283529160200191611db8565b820191906000526020600020905b815481529060010190602001808311611d9b57829003601f168201915b5050505050905088565b6001600160a01b03811660009081526002602081905260408220908101546001820180546060949385938493849384939192916003810191600482019160058101916006909101908690611e1590613686565b80601f0160208091040260200160405190810160405280929190818152602001828054611e4190613686565b8015611e8e5780601f10611e6357610100808354040283529160200191611e8e565b820191906000526020600020905b815481529060010190602001808311611e7157829003601f168201915b50505050509550838054611ea190613686565b80601f0160208091040260200160405190810160405280929190818152602001828054611ecd90613686565b8015611f1a5780601f10611eef57610100808354040283529160200191611f1a565b820191906000526020600020905b815481529060010190602001808311611efd57829003601f168201915b50505050509350828054611f2d90613686565b80601f0160208091040260200160405190810160405280929190818152602001828054611f5990613686565b8015611fa65780601f10611f7b57610100808354040283529160200191611fa6565b820191906000526020600020905b815481529060010190602001808311611f8957829003601f168201915b50505050509250818054611fb990613686565b80601f0160208091040260200160405190810160405280929190818152602001828054611fe590613686565b80156120325780601f1061200757610100808354040283529160200191612032565b820191906000526020600020905b81548152906001019060200180831161201557829003601f168201915b5050505050915080805461204590613686565b80601f016020809104026020016040519081016040528092919081815260200182805461207190613686565b80156120be5780601f10612093576101008083540402835291602001916120be565b820191906000526020600020905b8154815290600101906020018083116120a157829003601f168201915b5050505050905095509550955095509550955091939550919395565b6001600160a01b03811660009081526008602052604081205460ff16806110f957506001600160a01b0382166000908152600a602052604090205460ff1615610fa457506001919050565b61212e33612806565b61213757600080fd5b6000918252600d602052604090912080546001600160a01b0319166001600160a01b03909216919091179055565b6001600160a01b03811660009081526005602052604081205460ff1615610fa457506001919050565b3360009081526005602052604090205460ff1680156121c35750336000818152600260205260409020546001600160a01b0316145b6121cc57600080fd5b33600090815260026020908152604090912086516121f292600190920191880190612db9565b50336000908152600260208181526040909220908101869055845161221f92600390920191860190612db9565b50336000908152600260209081526040909120835161224692600490920191850190612db9565b50336000908152600260209081526040909120825161226d92600590920191840190612db9565b505050505050565b60008181526010602052604081205460ff1615610fa457506001919050565b601281815481106122a457600080fd5b6000918252602090912001546001600160a01b0316905081565b6122c733612806565b6122d057600080fd5b6001600160a01b038116600081815260086020908152604091829020805460ff1916600117905590519182527f6a6455914f452787eb3985452aceedc1000fb545e394eb3b370e3d08958e0a5b9101611417565b6000818152602081905260409020600201805460609190610fcc90613686565b61234d33612c44565b801561235d575061235d336120da565b61236657600080fd5b6000908152600e60205260409020805460ff19166001179055565b60606012805480602002602001604051908101604052809291908181526020018280548015611359576020028201919060005260206000209081546001600160a01b0316815260019091019060200180831161133b575050505050905090565b600260205260009081526040902080546001820180546001600160a01b03909216929161240d90613686565b80601f016020809104026020016040519081016040528092919081815260200182805461243990613686565b80156124865780601f1061245b57610100808354040283529160200191612486565b820191906000526020600020905b81548152906001019060200180831161246957829003601f168201915b5050505050908060020154908060030180546124a190613686565b80601f01602080910402602001604051908101604052809291908181526020018280546124cd90613686565b801561251a5780601f106124ef5761010080835404028352916020019161251a565b820191906000526020600020905b8154815290600101906020018083116124fd57829003601f168201915b50505050509080600401805461252f90613686565b80601f016020809104026020016040519081016040528092919081815260200182805461255b90613686565b80156125a85780601f1061257d576101008083540402835291602001916125a8565b820191906000526020600020905b81548152906001019060200180831161258b57829003601f168201915b5050505050908060050180546125bd90613686565b80601f01602080910402602001604051908101604052809291908181526020018280546125e990613686565b80156126365780601f1061260b57610100808354040283529160200191612636565b820191906000526020600020905b81548152906001019060200180831161261957829003601f168201915b50505050509080600601805461264b90613686565b80601f016020809104026020016040519081016040528092919081815260200182805461267790613686565b80156126c45780601f10612699576101008083540402835291602001916126c4565b820191906000526020600020905b8154815290600101906020018083116126a757829003601f168201915b5050505050905087565b6001602081905260009182526040909120805491810180546126ef90613686565b80601f016020809104026020016040519081016040528092919081815260200182805461271b90613686565b80156127685780601f1061273d57610100808354040283529160200191612768565b820191906000526020600020905b81548152906001019060200180831161274b57829003601f168201915b50505050509080600201549080600301805461278390613686565b80601f01602080910402602001604051908101604052809291908181526020018280546127af90613686565b80156127fc5780601f106127d1576101008083540402835291602001916127fc565b820191906000526020600020905b8154815290600101906020018083116127df57829003601f168201915b5050505050905084565b6011546000906001600160a01b03808416911603610fa457506001919050565b61282f33612806565b61283857600080fd5b6001600160a01b038116600081815260096020908152604091829020805460ff1916600117905590519182527faf77f8960cf590e245ec8b6d41c193a5dcacad8986ae4eb57ac9e5be7b6af0319101611417565b600060208190529081526040902080546001820154600283018054929391926128b490613686565b80601f01602080910402602001604051908101604052809291908181526020018280546128e090613686565b801561292d5780601f106129025761010080835404028352916020019161292d565b820191906000526020600020905b81548152906001019060200180831161291057829003601f168201915b50505050509080600301805461294290613686565b80601f016020809104026020016040519081016040528092919081815260200182805461296e90613686565b80156129bb5780601f10612990576101008083540402835291602001916129bb565b820191906000526020600020905b81548152906001019060200180831161299e57829003601f168201915b5050505050908060040154908060050154908060060154908060070180546129e290613686565b80601f0160208091040260200160405190810160405280929190818152602001828054612a0e90613686565b8015612a5b5780601f10612a3057610100808354040283529160200191612a5b565b820191906000526020600020905b815481529060010190602001808311612a3e57829003601f168201915b505050505090806008018054612a7090613686565b80601f0160208091040260200160405190810160405280929190818152602001828054612a9c90613686565b8015612ae95780601f10612abe57610100808354040283529160200191612ae9565b820191906000526020600020905b815481529060010190602001808311612acc57829003601f168201915b5050505050905089565b612afc33612c44565b8015612b0c5750612b0c336120da565b612b1557600080fd5b60148054906000612b25836136c0565b9091555050604080516101208101825260145480825260208083018c81528385018c8152606085018c9052608085018b905260a085018a905260c0850189905260e08501889052610100850187905260009384528383529490922083518155915160018301559251805192939192612ba39260028501920190612db9565b5060608201518051612bbf916003840191602090910190612db9565b506080820151600482015560a0820151600582015560c0820151600682015560e08201518051612bf9916007840191602090910190612db9565b506101008201518051612c16916008840191602090910190612db9565b50506014546000908152600d6020526040902080546001600160a01b03191633179055505050505050505050565b6001600160a01b03811660009081526006602052604081205460ff1615610fa457506001919050565b601381815481106122a457600080fd5b612c8633611051565b8015612c965750612c96336120da565b612c9f57600080fd5b60188054906000612caf836136c0565b909155505060408051608081018252601880548083526001600160a01b03868116602080860182815233878901908152606088018a81526000968752600484528987209851895591516001808a0180549288166001600160a01b0319938416179055915160028a018054919097169116179094555160039096019590955583548352600e8552858320805460ff1990811690915593548352600f85529185902080549093161790915591519182527fc67eb70629da758128cec22f7e36ad0676066ad4df9b66e8ba58a30c1ab4075b910160405180910390a15050565b612d9533612806565b612d9e57600080fd5b6000908152600c60205260409020805460ff19166001179055565b828054612dc590613686565b90600052602060002090601f016020900481019282612de75760008555612e2d565b82601f10612e0057805160ff1916838001178555612e2d565b82800160010185558215612e2d579182015b82811115612e2d578251825591602001919060010190612e12565b50612e39929150612e3d565b5090565b5b80821115612e395760008155600101612e3e565b600060208284031215612e6457600080fd5b5035919050565b634e487b7160e01b600052604160045260246000fd5b600082601f830112612e9257600080fd5b813567ffffffffffffffff80821115612ead57612ead612e6b565b604051601f8301601f19908116603f01168101908282118183101715612ed557612ed5612e6b565b81604052838152866020858801011115612eee57600080fd5b836020870160208301376000602085830101528094505050505092915050565b60008060008060008060c08789031215612f2757600080fd5b863567ffffffffffffffff80821115612f3f57600080fd5b612f4b8a838b01612e81565b9750602089013596506040890135915080821115612f6857600080fd5b612f748a838b01612e81565b95506060890135915080821115612f8a57600080fd5b612f968a838b01612e81565b94506080890135915080821115612fac57600080fd5b612fb88a838b01612e81565b935060a0890135915080821115612fce57600080fd5b50612fdb89828a01612e81565b9150509295509295509295565b6000815180845260005b8181101561300e57602081850181015186830182015201612ff2565b81811115613020576000602083870101525b50601f01601f19169290920160200192915050565b6020815260006130486020830184612fe8565b9392505050565b6001600160a01b038116811461306457600080fd5b50565b60006020828403121561307957600080fd5b81356130488161304f565b600080600080600080600060e0888a03121561309f57600080fd5b873567ffffffffffffffff808211156130b757600080fd5b6130c38b838c01612e81565b985060208a0135975060408a01359150808211156130e057600080fd5b6130ec8b838c01612e81565b965060608a013591508082111561310257600080fd5b61310e8b838c01612e81565b955060808a013591508082111561312457600080fd5b6131308b838c01612e81565b945060a08a013591508082111561314657600080fd5b6131528b838c01612e81565b935060c08a013591508082111561316857600080fd5b506131758a828b01612e81565b91505092959891949750929550565b6020808252825182820181905260009190848201906040850190845b818110156131c55783516001600160a01b0316835292840192918401916001016131a0565b50909695505050505050565b600080604083850312156131e457600080fd5b82356131ef8161304f565b946020939093013593505050565b60e08152600061321060e083018a612fe8565b8281036020840152613222818a612fe8565b905082810360408401526132368189612fe8565b9050828103606084015261324a8188612fe8565b9050828103608084015261325e8187612fe8565b90508460a084015282810360c08401526132788185612fe8565b9a9950505050505050505050565b6001600160a01b0389168152610100602082018190526000906132ab8382018b612fe8565b905088604084015282810360608401526132c58189612fe8565b905082810360808401526132d98188612fe8565b905082810360a08401526132ed8187612fe8565b905082810360c08401526133018186612fe8565b905082810360e08401526133158185612fe8565b9b9a5050505050505050505050565b60c08152600061333760c0830189612fe8565b876020840152828103604084015261334f8188612fe8565b905082810360608401526133638187612fe8565b905082810360808401526133778186612fe8565b905082810360a084015261338b8185612fe8565b9998505050505050505050565b600080604083850312156133ab57600080fd5b8235915060208301356133bd8161304f565b809150509250929050565b600080600080600060a086880312156133e057600080fd5b853567ffffffffffffffff808211156133f857600080fd5b61340489838a01612e81565b965060208801359550604088013591508082111561342157600080fd5b61342d89838a01612e81565b9450606088013591508082111561344357600080fd5b61344f89838a01612e81565b9350608088013591508082111561346557600080fd5b5061347288828901612e81565b9150509295509295909350565b6001600160a01b038816815260e0602082018190526000906134a390830189612fe8565b87604084015282810360608401526134bb8188612fe8565b905082810360808401526134cf8187612fe8565b905082810360a08401526134e38186612fe8565b905082810360c08401526132788185612fe8565b8481526080602082015260006135106080830186612fe8565b84604084015282810360608401526135288185612fe8565b979650505050505050565b60006101208b83528a60208401528060408401526135538184018b612fe8565b90508281036060840152613567818a612fe8565b90508760808401528660a08401528560c084015282810360e084015261358d8186612fe8565b90508281036101008401526135a28185612fe8565b9c9b505050505050505050505050565b600080600080600080600080610100898b0312156135cf57600080fd5b88359750602089013567ffffffffffffffff808211156135ee57600080fd5b6135fa8c838d01612e81565b985060408b013591508082111561361057600080fd5b61361c8c838d01612e81565b975060608b0135965060808b0135955060a08b0135945060c08b013591508082111561364757600080fd5b6136538c838d01612e81565b935060e08b013591508082111561366957600080fd5b506136768b828c01612e81565b9150509295985092959890939650565b600181811c9082168061369a57607f821691505b6020821081036136ba57634e487b7160e01b600052602260045260246000fd5b50919050565b6000600182016136e057634e487b7160e01b600052601160045260246000fd5b506001019056fea264697066735822122076465505ce3a13dd910bac4d5df3418f882670d3a9c882f0601ee5426cccb8dd64736f6c634300080d0033",
  "immutableReferences": {},
  "source": "pragma solidity >= 0.5.2;\r\npragma experimental ABIEncoderV2;\r\ncontract Land {\r\n    struct Landreg {\r\n        uint id;\r\n        uint area;\r\n        string city;\r\n        string state;\r\n        uint landPrice;\r\n        uint propertyPID;\r\n        uint physicalSurveyNumber;\r\n        string ipfsHash;\r\n        string document;\r\n    }\r\n\r\n    struct Buyer{\r\n        address id;\r\n        string name;\r\n        uint age;\r\n        string city;\r\n        string aadharNumber;\r\n        string panNumber;\r\n        string document;\r\n        string email;\r\n    }\r\n\r\n    struct Seller{\r\n        address id;\r\n        string name;\r\n        uint age;\r\n        string aadharNumber;\r\n        string panNumber;\r\n        string landsOwned;\r\n        string document;\r\n    }\r\n\r\n    struct LandInspector {\r\n        uint id;\r\n        string name;\r\n        uint age;\r\n        string designation;\r\n    }\r\n\r\n    struct LandRequest{\r\n        uint reqId;\r\n        address sellerId;\r\n        address buyerId;\r\n        uint landId;\r\n        // bool requestStatus;\r\n        // bool requested;\r\n    }\r\n\r\n    //key value pairs\r\n    mapping(uint => Landreg) public lands;\r\n    mapping(uint => LandInspector) public InspectorMapping;\r\n    mapping(address => Seller) public SellerMapping;\r\n    mapping(address => Buyer) public BuyerMapping;\r\n    mapping(uint => LandRequest) public RequestsMapping;\r\n\r\n    mapping(address => bool) public RegisteredAddressMapping;\r\n    mapping(address => bool) public RegisteredSellerMapping;\r\n    mapping(address => bool) public RegisteredBuyerMapping;\r\n    mapping(address => bool) public SellerVerification;\r\n    mapping(address => bool) public SellerRejection;\r\n    mapping(address => bool) public BuyerVerification;\r\n    mapping(address => bool) public BuyerRejection;\r\n    mapping(uint => bool) public LandVerification;\r\n    mapping(uint => address) public LandOwner;\r\n    mapping(uint => bool) public RequestStatus;\r\n    mapping(uint => bool) public RequestedLands;\r\n    mapping(uint => bool) public PaymentReceived;\r\n\r\n    address public Land_Inspector;\r\n    address[] public sellers;\r\n    address[] public buyers;\r\n\r\n    uint public landsCount;\r\n    uint public inspectorsCount;\r\n    uint public sellersCount;\r\n    uint public buyersCount;\r\n    uint public requestsCount;\r\n\r\n    event Registration(address _registrationId);\r\n    event AddingLand(uint indexed _landId);\r\n    event Landrequested(address _sellerId);\r\n    event requestApproved(address _buyerId);\r\n    event Verified(address _id);\r\n    event Rejected(address _id);\r\n\r\n    constructor() {\r\n        Land_Inspector = msg.sender ;\r\n        addLandInspector(\"Inspector 1\", 45, \"Tehsil Manager\");\r\n    }\r\n\r\n    function addLandInspector(string memory _name, uint _age, string memory _designation) private {\r\n        inspectorsCount++;\r\n        InspectorMapping[inspectorsCount] = LandInspector(inspectorsCount, _name, _age, _designation);\r\n    }\r\n\r\n    function getLandsCount() public view returns (uint) {\r\n        return landsCount;\r\n    }\r\n\r\n    function getBuyersCount() public view returns (uint) {\r\n        return buyersCount;\r\n    }\r\n\r\n    function getSellersCount() public view returns (uint) {\r\n        return sellersCount;\r\n    }\r\n\r\n    function getRequestsCount() public view returns (uint) {\r\n        return requestsCount;\r\n    }\r\n    function getArea(uint i) public view returns (uint) {\r\n        return lands[i].area;\r\n    }\r\n    function getCity(uint i) public view returns (string memory) {\r\n        return lands[i].city;\r\n    }\r\n     function getState(uint i) public view returns (string memory) {\r\n        return lands[i].state;\r\n    }\r\n    // function getStatus(uint i) public view returns (bool) {\r\n    //     return lands[i].verificationStatus;\r\n    // }\r\n    function getPrice(uint i) public view returns (uint) {\r\n        return lands[i].landPrice;\r\n    }\r\n    function getPID(uint i) public view returns (uint) {\r\n        return lands[i].propertyPID;\r\n    }\r\n    function getSurveyNumber(uint i) public view returns (uint) {\r\n        return lands[i].physicalSurveyNumber;\r\n    }\r\n    function getImage(uint i) public view returns (string memory) {\r\n        return lands[i].ipfsHash;\r\n    }\r\n    function getDocument(uint i) public view returns (string memory) {\r\n        return lands[i].document;\r\n    }\r\n    \r\n    function getLandOwner(uint id) public view returns (address) {\r\n        return LandOwner[id];\r\n    }\r\n\r\n    function verifySeller(address _sellerId) public{\r\n        require(isLandInspector(msg.sender));\r\n\r\n        SellerVerification[_sellerId] = true;\r\n        emit Verified(_sellerId);\r\n    }\r\n\r\n    function rejectSeller(address _sellerId) public{\r\n        require(isLandInspector(msg.sender));\r\n\r\n        SellerRejection[_sellerId] = true;\r\n        emit Rejected(_sellerId);\r\n    }\r\n\r\n    function verifyBuyer(address _buyerId) public{\r\n        require(isLandInspector(msg.sender));\r\n\r\n        BuyerVerification[_buyerId] = true;\r\n        emit Verified(_buyerId);\r\n    }\r\n\r\n    function rejectBuyer(address _buyerId) public{\r\n        require(isLandInspector(msg.sender));\r\n\r\n        BuyerRejection[_buyerId] = true;\r\n        emit Rejected(_buyerId);\r\n    }\r\n    \r\n    function verifyLand(uint _landId) public{\r\n        require(isLandInspector(msg.sender));\r\n\r\n        LandVerification[_landId] = true;\r\n    }\r\n\r\n    function isLandVerified(uint _id) public view returns (bool) {\r\n        if(LandVerification[_id]){\r\n            return true;\r\n        }\r\n        return false;\r\n    }\r\n\r\n    function isVerified(address _id) public view returns (bool) {\r\n        if(SellerVerification[_id] || BuyerVerification[_id]){\r\n            return true;\r\n        }\r\n        return false;\r\n    }\r\n\r\n    function isRejected(address _id) public view returns (bool) {\r\n        if(SellerRejection[_id] || BuyerRejection[_id]){\r\n            return true;\r\n        }\r\n        return false;\r\n    }\r\n\r\n    function isSeller(address _id) public view returns (bool) {\r\n        if(RegisteredSellerMapping[_id]){\r\n            return true;\r\n        }\r\n        return false;\r\n    }\r\n\r\n    function isLandInspector(address _id) public view returns (bool) {\r\n        if(Land_Inspector == _id){\r\n            return true;\r\n        }else{\r\n            return false;\r\n        }\r\n    }\r\n\r\n    function isBuyer(address _id) public view returns (bool) {\r\n        if(RegisteredBuyerMapping[_id]){\r\n            return true;\r\n        }\r\n        return false;\r\n    }\r\n    function isRegistered(address _id) public view returns (bool) {\r\n        if(RegisteredAddressMapping[_id]){\r\n            return true;\r\n        }\r\n        return false;\r\n    }\r\n\r\n    function addLand(uint _area, string memory _city,string memory _state, uint landPrice, uint _propertyPID,uint _surveyNum,string memory _ipfsHash, string memory _document) public {\r\n        require((isSeller(msg.sender)) && (isVerified(msg.sender)));\r\n        landsCount++;\r\n        lands[landsCount] = Landreg(landsCount, _area, _city, _state, landPrice,_propertyPID, _surveyNum, _ipfsHash, _document);\r\n        LandOwner[landsCount] = msg.sender;\r\n        // emit AddingLand(landsCount);\r\n    }\r\n\r\n    //registration of seller\r\n    function registerSeller(string memory _name, uint _age, string memory _aadharNumber, string memory _panNumber, string memory _landsOwned, string memory _document) public {\r\n        //require that Seller is not already registered\r\n        require(!RegisteredAddressMapping[msg.sender]);\r\n\r\n        RegisteredAddressMapping[msg.sender] = true;\r\n        RegisteredSellerMapping[msg.sender] = true ;\r\n        sellersCount++;\r\n        SellerMapping[msg.sender] = Seller(msg.sender, _name, _age, _aadharNumber,_panNumber, _landsOwned, _document);\r\n        sellers.push(msg.sender);\r\n        emit Registration(msg.sender);\r\n    }\r\n\r\n    function updateSeller(string memory _name, uint _age, string memory _aadharNumber, string memory _panNumber, string memory _landsOwned) public {\r\n        //require that Seller is already registered\r\n        require(RegisteredAddressMapping[msg.sender] && (SellerMapping[msg.sender].id == msg.sender));\r\n\r\n        SellerMapping[msg.sender].name = _name;\r\n        SellerMapping[msg.sender].age = _age;\r\n        SellerMapping[msg.sender].aadharNumber = _aadharNumber;\r\n        SellerMapping[msg.sender].panNumber = _panNumber;\r\n        SellerMapping[msg.sender].landsOwned = _landsOwned;\r\n\r\n    }\r\n\r\n    function getSeller() public view returns( address [] memory ){\r\n        return(sellers);\r\n    }\r\n\r\n    function getSellerDetails(address i) public view returns (string memory, uint, string memory, string memory, string memory, string memory) {\r\n        return (SellerMapping[i].name, SellerMapping[i].age, SellerMapping[i].aadharNumber, SellerMapping[i].panNumber, SellerMapping[i].landsOwned, SellerMapping[i].document);\r\n    }\r\n\r\n    function registerBuyer(string memory _name, uint _age, string memory _city, string memory _aadharNumber, string memory _panNumber, string memory _document, string memory _email) public {\r\n        //require that Buyer is not already registered\r\n        require(!RegisteredAddressMapping[msg.sender]);\r\n\r\n        RegisteredAddressMapping[msg.sender] = true;\r\n        RegisteredBuyerMapping[msg.sender] = true ;\r\n        buyersCount++;\r\n        BuyerMapping[msg.sender] = Buyer(msg.sender, _name, _age, _city, _aadharNumber, _panNumber, _document, _email);\r\n        buyers.push(msg.sender);\r\n\r\n        emit Registration(msg.sender);\r\n    }\r\n\r\n    function updateBuyer(string memory _name,uint _age, string memory _city,string memory _aadharNumber, string memory _email, string memory _panNumber) public {\r\n        //require that Buyer is already registered\r\n        require(RegisteredAddressMapping[msg.sender] && (BuyerMapping[msg.sender].id == msg.sender));\r\n\r\n        BuyerMapping[msg.sender].name = _name;\r\n        BuyerMapping[msg.sender].age = _age;\r\n        BuyerMapping[msg.sender].city = _city;\r\n        BuyerMapping[msg.sender].aadharNumber = _aadharNumber;\r\n        BuyerMapping[msg.sender].email = _email;\r\n        BuyerMapping[msg.sender].panNumber = _panNumber;\r\n        \r\n    }\r\n\r\n    function getBuyer() public view returns( address [] memory ){\r\n        return(buyers);\r\n    }\r\n\r\n    function getBuyerDetails(address i) public view returns ( string memory,string memory, string memory, string memory, string memory, uint, string memory) {\r\n        return (BuyerMapping[i].name,BuyerMapping[i].city , BuyerMapping[i].panNumber, BuyerMapping[i].document, BuyerMapping[i].email, BuyerMapping[i].age, BuyerMapping[i].aadharNumber);\r\n    }\r\n\r\n\r\n    function requestLand(address _sellerId, uint _landId) public{\r\n        require(isBuyer(msg.sender) && isVerified(msg.sender));\r\n        \r\n        requestsCount++;\r\n        RequestsMapping[requestsCount] = LandRequest(requestsCount, _sellerId, msg.sender, _landId);\r\n        RequestStatus[requestsCount] = false;\r\n        RequestedLands[requestsCount] = true;\r\n\r\n        emit Landrequested(_sellerId);\r\n    }\r\n\r\n    function getRequestDetails (uint i) public view returns (address, address, uint, bool) {\r\n        return(RequestsMapping[i].sellerId, RequestsMapping[i].buyerId, RequestsMapping[i].landId, RequestStatus[i]);\r\n    }\r\n\r\n    function isRequested(uint _id) public view returns (bool) {\r\n        if(RequestedLands[_id]){\r\n            return true;\r\n        }\r\n        return false;\r\n    }\r\n\r\n    function isApproved(uint _id) public view returns (bool) {\r\n        if(RequestStatus[_id]){\r\n            return true;\r\n        }\r\n        return false;\r\n    }\r\n\r\n    function approveRequest(uint _reqId) public {\r\n        require((isSeller(msg.sender)) && (isVerified(msg.sender)));\r\n       \r\n        RequestStatus[_reqId] = true;\r\n\r\n    }\r\n\r\n    function LandOwnershipTransfer(uint _landId, address _newOwner) public{\r\n        require(isLandInspector(msg.sender));\r\n\r\n        LandOwner[_landId] = _newOwner;\r\n    }\r\n\r\n    function isPaid(uint _landId) public view returns (bool) {\r\n        if(PaymentReceived[_landId]){\r\n            return true;\r\n        }\r\n        return false;\r\n    }\r\n\r\n    function payment(address payable _receiver, uint _landId) public payable {\r\n        PaymentReceived[_landId] = true;\r\n        _receiver.transfer(msg.value);\r\n    }\r\n\r\n\r\n\r\n}",
  "sourcePath": "D:\\Github\\HackThon API\\MiniHack\\contracts\\Land.sol",
  "compiler": {
    "name": "solc",
    "version": "0.8.13+commit.abaa5c0e.Emscripten.clang"
  },
  "schemaVersion": "3.4.16",
  "updatedAt": "2024-03-27T13:27:41.469Z",
  "devdoc": {
    "kind": "dev",
    "methods": {},
    "version": 1
  },
  "userdoc": {
    "kind": "user",
    "methods": {},
    "version": 1
  }
}