{
  "contractName": "Upload",
  "abi": [
    {
      "inputs": [
        {
          "internalType": "address",
          "name": "_user",
          "type": "address"
        },
        {
          "internalType": "string",
          "name": "url",
          "type": "string"
        }
      ],
      "name": "add",
      "outputs": [],
      "stateMutability": "nonpayable",
      "type": "function"
    },
    {
      "inputs": [
        {
          "internalType": "address",
          "name": "user",
          "type": "address"
        }
      ],
      "name": "allow",
      "outputs": [],
      "stateMutability": "nonpayable",
      "type": "function"
    },
    {
      "inputs": [
        {
          "internalType": "address",
          "name": "user",
          "type": "address"
        }
      ],
      "name": "disallow",
      "outputs": [],
      "stateMutability": "nonpayable",
      "type": "function"
    },
    {
      "inputs": [
        {
          "internalType": "address",
          "name": "_user",
          "type": "address"
        }
      ],
      "name": "display",
      "outputs": [
        {
          "internalType": "string[]",
          "name": "",
          "type": "string[]"
        }
      ],
      "stateMutability": "view",
      "type": "function",
      "constant": true
    },
    {
      "inputs": [],
      "name": "AccessFriends",
      "outputs": [
        {
          "internalType": "string[]",
          "name": "",
          "type": "string[]"
        }
      ],
      "stateMutability": "view",
      "type": "function",
      "constant": true
    },
    {
      "inputs": [],
      "name": "MyFriends",
      "outputs": [
        {
          "internalType": "string[]",
          "name": "",
          "type": "string[]"
        }
      ],
      "stateMutability": "view",
      "type": "function",
      "constant": true
    },
    {
      "inputs": [],
      "name": "shareAccess",
      "outputs": [
        {
          "components": [
            {
              "internalType": "address",
              "name": "user",
              "type": "address"
            },
            {
              "internalType": "bool",
              "name": "access",
              "type": "bool"
            }
          ],
          "internalType": "struct Upload.Access[]",
          "name": "",
          "type": "tuple[]"
        }
      ],
      "stateMutability": "view",
      "type": "function",
      "constant": true
    }
  ],
  "bytecode": "0x608060405234801561001057600080fd5b506114d0806100206000396000f3fe608060405234801561001057600080fd5b506004361061007d5760003560e01c8063a9ed9cb81161005b578063a9ed9cb8146100da578063bc8bef81146100f6578063eb39113f14610114578063ff9913e8146101445761007d565b806336d6da551461008257806337b371601461009e5780633dc76506146100bc575b600080fd5b61009c60048036038101906100979190610fee565b610160565b005b6100a66101dc565b6040516100b39190611194565b60405180910390f35b6100c46102f2565b6040516100d19190611194565b60405180910390f35b6100f460048036038101906100ef91906111b6565b61040b565b005b6100fe61062d565b60405161010b91906112eb565b60405180910390f35b61012e600480360381019061012991906111b6565b610736565b60405161013b9190611194565b60405180910390f35b61015e600480360381019061015991906111b6565b61094c565b005b6000808373ffffffffffffffffffffffffffffffffffffffff1673ffffffffffffffffffffffffffffffffffffffff168152602001908152602001600020819080600181540180825580915050600190039060005260206000200160009091909190915090805190602001906101d7929190610d93565b505050565b6060600160003373ffffffffffffffffffffffffffffffffffffffff1673ffffffffffffffffffffffffffffffffffffffff168152602001908152602001600020805480602002602001604051908101604052809291908181526020016000905b828210156102e957838290600052602060002001805461025c9061133c565b80601f01602080910402602001604051908101604052809291908181526020018280546102889061133c565b80156102d55780601f106102aa576101008083540402835291602001916102d5565b820191906000526020600020905b8154815290600101906020018083116102b857829003601f168201915b50505050508152602001906001019061023d565b50505050905090565b6060600260003373ffffffffffffffffffffffffffffffffffffffff1673ffffffffffffffffffffffffffffffffffffffff168152602001908152602001600020600101805480602002602001604051908101604052809291908181526020016000905b828210156104025783829060005260206000200180546103759061133c565b80601f01602080910402602001604051908101604052809291908181526020018280546103a19061133c565b80156103ee5780601f106103c3576101008083540402835291602001916103ee565b820191906000526020600020905b8154815290600101906020018083116103d157829003601f168201915b505050505081526020019060010190610356565b50505050905090565b6000600360003373ffffffffffffffffffffffffffffffffffffffff1673ffffffffffffffffffffffffffffffffffffffff16815260200190815260200160002060008373ffffffffffffffffffffffffffffffffffffffff1673ffffffffffffffffffffffffffffffffffffffff16815260200190815260200160002060006101000a81548160ff02191690831515021790555060005b600460003373ffffffffffffffffffffffffffffffffffffffff1673ffffffffffffffffffffffffffffffffffffffff16815260200190815260200160002080549050811015610629578173ffffffffffffffffffffffffffffffffffffffff16600460003373ffffffffffffffffffffffffffffffffffffffff1673ffffffffffffffffffffffffffffffffffffffff16815260200190815260200160002082815481106105555761055461136d565b5b9060005260206000200160000160009054906101000a900473ffffffffffffffffffffffffffffffffffffffff1673ffffffffffffffffffffffffffffffffffffffff1603610616576000600460003373ffffffffffffffffffffffffffffffffffffffff1673ffffffffffffffffffffffffffffffffffffffff16815260200190815260200160002082815481106105f1576105f061136d565b5b9060005260206000200160000160146101000a81548160ff0219169083151502179055505b8080610621906113d5565b9150506104a3565b5050565b6060600460003373ffffffffffffffffffffffffffffffffffffffff1673ffffffffffffffffffffffffffffffffffffffff168152602001908152602001600020805480602002602001604051908101604052809291908181526020016000905b8282101561072d578382906000526020600020016040518060400160405290816000820160009054906101000a900473ffffffffffffffffffffffffffffffffffffffff1673ffffffffffffffffffffffffffffffffffffffff1673ffffffffffffffffffffffffffffffffffffffff1681526020016000820160149054906101000a900460ff1615151515815250508152602001906001019061068e565b50505050905090565b60603373ffffffffffffffffffffffffffffffffffffffff168273ffffffffffffffffffffffffffffffffffffffff1614806107f85750600360008373ffffffffffffffffffffffffffffffffffffffff1673ffffffffffffffffffffffffffffffffffffffff16815260200190815260200160002060003373ffffffffffffffffffffffffffffffffffffffff1673ffffffffffffffffffffffffffffffffffffffff16815260200190815260200160002060009054906101000a900460ff165b610837576040517f08c379a000000000000000000000000000000000000000000000000000000000815260040161082e9061147a565b60405180910390fd5b6000808373ffffffffffffffffffffffffffffffffffffffff1673ffffffffffffffffffffffffffffffffffffffff168152602001908152602001600020805480602002602001604051908101604052809291908181526020016000905b828210156109415783829060005260206000200180546108b49061133c565b80601f01602080910402602001604051908101604052809291908181526020018280546108e09061133c565b801561092d5780601f106109025761010080835404028352916020019161092d565b820191906000526020600020905b81548152906001019060200180831161091057829003601f168201915b505050505081526020019060010190610895565b505050509050919050565b6001600360003373ffffffffffffffffffffffffffffffffffffffff1673ffffffffffffffffffffffffffffffffffffffff16815260200190815260200160002060008373ffffffffffffffffffffffffffffffffffffffff1673ffffffffffffffffffffffffffffffffffffffff16815260200190815260200160002060006101000a81548160ff021916908315150217905550600560003373ffffffffffffffffffffffffffffffffffffffff1673ffffffffffffffffffffffffffffffffffffffff16815260200190815260200160002060008273ffffffffffffffffffffffffffffffffffffffff1673ffffffffffffffffffffffffffffffffffffffff16815260200190815260200160002060009054906101000a900460ff1615610bff5760005b600460003373ffffffffffffffffffffffffffffffffffffffff1673ffffffffffffffffffffffffffffffffffffffff16815260200190815260200160002080549050811015610bf9578173ffffffffffffffffffffffffffffffffffffffff16600460003373ffffffffffffffffffffffffffffffffffffffff1673ffffffffffffffffffffffffffffffffffffffff1681526020019081526020016000208281548110610b2557610b2461136d565b5b9060005260206000200160000160009054906101000a900473ffffffffffffffffffffffffffffffffffffffff1673ffffffffffffffffffffffffffffffffffffffff1603610be6576001600460003373ffffffffffffffffffffffffffffffffffffffff1673ffffffffffffffffffffffffffffffffffffffff1681526020019081526020016000208281548110610bc157610bc061136d565b5b9060005260206000200160000160146101000a81548160ff0219169083151502179055505b8080610bf1906113d5565b915050610a73565b50610d90565b600460003373ffffffffffffffffffffffffffffffffffffffff1673ffffffffffffffffffffffffffffffffffffffff16815260200190815260200160002060405180604001604052808373ffffffffffffffffffffffffffffffffffffffff168152602001600115158152509080600181540180825580915050600190039060005260206000200160009091909190915060008201518160000160006101000a81548173ffffffffffffffffffffffffffffffffffffffff021916908373ffffffffffffffffffffffffffffffffffffffff16021790555060208201518160000160146101000a81548160ff02191690831515021790555050506001600560003373ffffffffffffffffffffffffffffffffffffffff1673ffffffffffffffffffffffffffffffffffffffff16815260200190815260200160002060008373ffffffffffffffffffffffffffffffffffffffff1673ffffffffffffffffffffffffffffffffffffffff16815260200190815260200160002060006101000a81548160ff0219169083151502179055505b50565b828054610d9f9061133c565b90600052602060002090601f016020900481019282610dc15760008555610e08565b82601f10610dda57805160ff1916838001178555610e08565b82800160010185558215610e08579182015b82811115610e07578251825591602001919060010190610dec565b5b509050610e159190610e19565b5090565b5b80821115610e32576000816000905550600101610e1a565b5090565b6000604051905090565b600080fd5b600080fd5b600073ffffffffffffffffffffffffffffffffffffffff82169050919050565b6000610e7582610e4a565b9050919050565b610e8581610e6a565b8114610e9057600080fd5b50565b600081359050610ea281610e7c565b92915050565b600080fd5b600080fd5b6000601f19601f8301169050919050565b7f4e487b7100000000000000000000000000000000000000000000000000000000600052604160045260246000fd5b610efb82610eb2565b810181811067ffffffffffffffff82111715610f1a57610f19610ec3565b5b80604052505050565b6000610f2d610e36565b9050610f398282610ef2565b919050565b600067ffffffffffffffff821115610f5957610f58610ec3565b5b610f6282610eb2565b9050602081019050919050565b82818337600083830152505050565b6000610f91610f8c84610f3e565b610f23565b905082815260208101848484011115610fad57610fac610ead565b5b610fb8848285610f6f565b509392505050565b600082601f830112610fd557610fd4610ea8565b5b8135610fe5848260208601610f7e565b91505092915050565b6000806040838503121561100557611004610e40565b5b600061101385828601610e93565b925050602083013567ffffffffffffffff81111561103457611033610e45565b5b61104085828601610fc0565b9150509250929050565b600081519050919050565b600082825260208201905092915050565b6000819050602082019050919050565b600081519050919050565b600082825260208201905092915050565b60005b838110156110b0578082015181840152602081019050611095565b838111156110bf576000848401525b50505050565b60006110d082611076565b6110da8185611081565b93506110ea818560208601611092565b6110f381610eb2565b840191505092915050565b600061110a83836110c5565b905092915050565b6000602082019050919050565b600061112a8261104a565b6111348185611055565b93508360208202850161114685611066565b8060005b85811015611182578484038952815161116385826110fe565b945061116e83611112565b925060208a0199505060018101905061114a565b50829750879550505050505092915050565b600060208201905081810360008301526111ae818461111f565b905092915050565b6000602082840312156111cc576111cb610e40565b5b60006111da84828501610e93565b91505092915050565b600081519050919050565b600082825260208201905092915050565b6000819050602082019050919050565b61121881610e6a565b82525050565b60008115159050919050565b6112338161121e565b82525050565b60408201600082015161124f600085018261120f565b506020820151611262602085018261122a565b50505050565b60006112748383611239565b60408301905092915050565b6000602082019050919050565b6000611298826111e3565b6112a281856111ee565b93506112ad836111ff565b8060005b838110156112de5781516112c58882611268565b97506112d083611280565b9250506001810190506112b1565b5085935050505092915050565b60006020820190508181036000830152611305818461128d565b905092915050565b7f4e487b7100000000000000000000000000000000000000000000000000000000600052602260045260246000fd5b6000600282049050600182168061135457607f821691505b6020821081036113675761136661130d565b5b50919050565b7f4e487b7100000000000000000000000000000000000000000000000000000000600052603260045260246000fd5b7f4e487b7100000000000000000000000000000000000000000000000000000000600052601160045260246000fd5b6000819050919050565b60006113e0826113cb565b91507fffffffffffffffffffffffffffffffffffffffffffffffffffffffffffffffff82036114125761141161139c565b5b600182019050919050565b600082825260208201905092915050565b7f596f7520646f6e27742068617665206163636573730000000000000000000000600082015250565b600061146460158361141d565b915061146f8261142e565b602082019050919050565b6000602082019050818103600083015261149381611457565b905091905056fea264697066735822122066cf25cdb5e53ff21806341d9d02020af8c61cd1d666a3a2c266c5833bc3da1564736f6c634300080d0033",
  "immutableReferences": {},
  "source": "pragma solidity >= 0.5.2;\r\n\r\n\r\ncontract Upload {\r\n  \r\n  struct Access{\r\n     address user; \r\n     bool access; //true or false\r\n  }\r\n  struct Person{\r\n    address user;\r\n    string[] Access;\r\n  }\r\n  mapping(address=>string[]) value;\r\n  mapping(address=>string[])friends;\r\n  mapping(address=>Person)person;\r\n  mapping(address=>mapping(address=>bool)) ownership;\r\n  mapping(address=>Access[]) accessList;\r\n  mapping(address=>mapping(address=>bool)) previousData;\r\n\r\n  function add(address _user,string memory url) external {\r\n      value[_user].push(url);\r\n  }\r\n  function allow(address user) external {//def\r\n      ownership[msg.sender][user]=true; \r\n      if(previousData[msg.sender][user]){\r\n         for(uint i=0;i<accessList[msg.sender].length;i++){\r\n             if(accessList[msg.sender][i].user==user){\r\n                  accessList[msg.sender][i].access=true; \r\n             }\r\n         }\r\n      }else{\r\n          accessList[msg.sender].push(Access(user,true));  \r\n          previousData[msg.sender][user]=true;  \r\n      }\r\n    \r\n  }\r\n  function disallow(address user) public{\r\n      ownership[msg.sender][user]=false;\r\n      for(uint i=0;i<accessList[msg.sender].length;i++){\r\n          if(accessList[msg.sender][i].user==user){ \r\n              accessList[msg.sender][i].access=false;  \r\n          }\r\n      }\r\n  }\r\n\r\n      function display(address _user) external view returns(string[] memory){\r\n      require(_user==msg.sender || ownership[_user][msg.sender],\"You don't have access\");\r\n      return value[_user];\r\n  }\r\n//   function display(address user) external view returns(string memory){\r\n//     if(user==msg.sender || ownership[user][msg.sender]){\r\n// \r\n//     }else{\r\n        \r\n//     }\r\n    //   require(user==msg.sender || ownership[user][msg.sender],\"You don't have access\");\r\n      \r\n    function AccessFriends() public view returns(string[] memory){\r\n        return person[msg.sender].Access;\r\n    }\r\n    function MyFriends() public view returns(string[] memory){\r\n        return friends[msg.sender];\r\n    }\r\n\r\n  function shareAccess() public view returns(Access[] memory){\r\n      return accessList[msg.sender];\r\n  }\r\n}",
  "sourcePath": "C:\\Users\\siddh\\Desktop\\MiniHack\\contracts\\Upload.sol",
  "compiler": {
    "name": "solc",
    "version": "0.8.13+commit.abaa5c0e.Emscripten.clang"
  },
  "schemaVersion": "3.4.16",
  "updatedAt": "2024-03-28T08:42:19.383Z",
  "networkType": "ethereum",
  "devdoc": {
    "kind": "dev",
    "methods": {},
    "version": 1
  },
  "userdoc": {
    "kind": "user",
    "methods": {},
    "version": 1
  }
}